:020000040000FA
:0400000007EF00F016
:0A0008005D82B7ED0DF0E9EF0CF09A
:100800000054656D70657261747572653A20256477
:1008100000434D442B4C45440052483A2025640087
:070820003E3E3E003D0000DA
:1008280020C038F021C039F022C03AF023C03BF094
:1008380024C03CF025C03DF026C03EF027C03FF064
:100848003FBE29EF04F02CEF04F0010E2DEF04F069
:10085800000E366E376A36503710D8B436EF04F0CB
:1008680038EF04F048EF04F03F1E3E1E3D1E3C1ECC
:100878003B1E3A1E391E386C000E39223A223B22A2
:100888003C223D223E223F22000165BF4EEF04F08C
:1008980050EF04F051EF04F05B9265BF5EEF04F097
:1008A800655106E16405D8B05CEF04F05EEF04F032
:1008B80064EF04F0000E336E010E326E68EF04F040
:1008C80064C032F065C033F062C034F063C035F004
:1008D80036503710D8A473EF04F075EF04F07CEFAE
:1008E80004F05BA47AEF04F07CEF04F07FEF04F0EF
:1008F8003406D8A03506000E416E1F0E406E000E5D
:10090800B86F03EF05F04006D8A04106990E4024C1
:10091800D96E000E4120DA6E38C003F039C004F0F9
:100928003AC005F03BC006F03CC007F03DC008F0F7
:100938003EC009F03FC00AF00A0E0B6E000E0C6EA6
:10094800000E0D6E000E0E6E000E0F6E000E106E75
:10095800000E116E000E126ED5EC09F003C028F0DF
:1009680004C029F005C02AF006C02BF007C02CF0FF
:1009780008C02DF009C02EF00AC02FF028C015F0CD
:100988002AC016F045EC0EF01550300FDF6E320617
:10099800D8A033063406D8A0350638C003F039C0CD
:1009A80004F03AC005F03BC006F03CC007F03DC07B
:1009B80008F03EC009F03FC00AF00A0E0B6E000EA8
:1009C8000C6E000E0D6E000E0E6E000E0F6E000EF9
:1009D800106E000E116E000E126E56EC08F003C079
:1009E80038F004C039F005C03AF006C03BF007C043
:1009F8003CF008C03DF009C03EF00AC03FF041BEDF
:100A08000EEF05F0415008E14004D8A00EEF05F0C4
:100A180010EF05F040EF05F0385039103A103B1050
:100A28003C103D103E103F10D8A41DEF05F01FEFFD
:100A380005F087EF04F033BE2CEF05F0335006E1E4
:100A48003204D8B02AEF05F02CEF05F087EF04F058
:100A580035BE37EF05F0355008E13404D8A037EF3C
:100A680005F039EF05F040EF05F05BB23EEF05F019
:100A780040EF05F087EF04F036503710D8A447EF61
:100A880005F049EF05F050EF05F05BA44EEF05F0D7
:100A980050EF05F06EEF05F04006D8A0410636503D
:100AA8003710D8A45AEF05F05CEF05F062EF05F0B7
:100AB800000E316E2B0E306E66EF05F0000E316EB3
:100AC8002D0E306E990E4024D96E000E4120DA6E3C
:100AD80030C0DFFF1EC013F01FC014F0990E402471
:100AE800156E000E4120166E34C017F035C018F090
:100AF80057EC0BF013C01EF014C01FF01200000ECC
:100B0800036E010E046E000E066E000E056E000EDA
:100B1800086E280E076E1AEC09F0000E956E8C947C
:100B28005E0E0001C96F800EE82EFED7C92FFCD7D4
:100B380000F08C841A0EE82EFED700D0010E956EB8
:100B480083B4A9EF05F0ABEF05F0A4EF05F083A49B
:100B5800B0EF05F0B2EF05F0ABEF05F083B4B7EFF7
:100B680005F0B9EF05F0B2EF05F0000E0001CC6F0B
:100B7800DDEC0DF00001CC51020D000EF324D96E0E
:100B8800010EF420DA6E03C0DEFF04C0DDFFCC2BBB
:100B9800270ECC65D2EF05F0D4EF05F0BCEF05F0D9
:100BA800000ECE6F000ECD6F000ED06F000ECF6F0F
:100BB800000ED46F000ED36F000ED66F000ED56FE7
:100BC800000ED26F070ED16F000ED66F000ED56FD4
:100BD800D6BFF8EF05F0D65109E1080ED55DD8A0CB
:100BE800F8EF05F0FAEF05F0FCEF05F02AEF06F054
:100BF800D890D535D96ED635DA6E000ED926010EC5
:100C0800DA22DECFD3F0DDCFD4F0D1C0C9F0D3C023
:100C1800CAF0D4C0CBF0C92B15EF06F0D890CA376C
:100C2800CB37C92F12EF06F0CAC0D3F0CBC0D4F02F
:100C38000001D351CD11CD6FD451CE11CE6FD10754
:100C4800D8A0D207D54BD62BECEF05F0000ED26F0B
:100C5800070ED16F000ED66F100ED56FD6BF3EEFC0
:100C680006F0D65109E1180ED55DD8A03EEF06F082
:100C780040EF06F042EF06F070EF06F0D890D53559
:100C8800D96ED635DA6E000ED926010EDA22DECFFD
:100C9800D3F0DDCFD4F0D1C0C9F0D3C0CAF0D4C0EE
:100CA800CBF0C92B5BEF06F0D890CA37CB37C92FEA
:100CB80058EF06F0CAC0D3F0CBC0D4F00001D3512E
:100CC800CF11CF6FD451D011D06FD107D8A0D20790
:100CD800D54BD62B32EF06F0670E036E000E046E6E
:100CE800000E066E000E056E020E086E000E076EF0
:100CF8001AEC09F0670E0001B96F000EBA6F010E09
:100D0800BB6F080EBC6FCFC0BDF0D0C0BEF041ECC9
:100D18000DF0670E076E000E086E00EC0EF0670E01
:100D2800036E000E046E000E066E000E056E020EB7
:100D3800086E000E076E1AEC09F0670E0001B96F15
:100D4800000EBA6F190EBB6F080EBC6FCDC0BDF098
:100D5800CEC0BEF041EC0DF0670E076E000E086EB7
:100D680000EC0EF0120044C0D9FF45C0DAFFDECF18
:100D7800F6FFDDCFF7FF0800F550250AD8A4C7EF26
:100D880006F0C9EF06F075EF07F044C0D9FF45C07B
:100D9800DAFFDE2A000EDD22000E0001636F000E6E
:100DA800626F62C05BF063C05CF06469656944C0EF
:100DB800D9FF45C0DAFFDECFF6FFDDCFF7FF080029
:100DC800F550640AD8B4EBEF06F0EDEF06F0FFEF4C
:100DD80006F044C0D9FF45C0DAFFDECFF6FFDDCF0D
:100DE800F7FF0800F550690AD8A4FDEF06F0FFEFF9
:100DF80006F03FEF07F044C0D9FF45C0DAFFDE2A0E
:100E0800000EDD2246C0D9FF47C0DAFFDFCF48F029
:100E1800020EDE26DFCF49F0000EDD2248C0D9FFE2
:100E280049C0DAFFDECF4AF0DDCF4BF0000E4BBEF3
:100E3800FF0E4C6E4D6E4E6E4F6E506E516E42C030
:100E48001EF043C01FF04AC020F04BC021F04CC038
:100E580022F04DC023F04EC024F04FC025F050C002
:100E680026F051C027F014EC04F01EC042F01FC059
:100E780043F090EF07F044C0D9FF45C0DAFFDECF5A
:100E8800F6FFDDCFF7FF0800F550250AD8A44FEF8D
:100E980007F051EF07F068EF07F044C0D9FF45C0ED
:100EA800DAFFDE2A000EDD22000E046E250E036E28
:100EB80042C005F043C006F0F2EC0AF0000E436EA3
:100EC800010E426E90EF07F044C0D9FF45C0DAFF2B
:100ED800DE2A000EDD22000E436E000E426E90EFF9
:100EE80007F044C0D9FF45C0DAFFDECFF6FFDDCFFB
:100EF800F7FF0800F550036E046A42C005F043C0CE
:100F080006F0F2EC0AF044C0D9FF45C0DAFFDE2A49
:100F1800000EDD2262EF07F01200000E186E000EC0
:100F2800176E000E116E000E106E9DEF07F00A4A44
:100F38000B2A010E166E0AC0D9FF0BC0DAFF200E6D
:100F4800DE18D8B4AAEF07F0ACEF07F0C8EF07F047
:100F5800F70E0C6EFF0E0D6E0AC0D9FF0BC0DAFF3C
:100F6800DF500E6E0F6A0C500E260D500F220F50D8
:100F780009E1050E0E5CD8A0C4EF07F0C6EF07F034
:100F8800C8EF07F0000E166E16C012F0136A125062
:100F98001310D8A4D2EF07F0D4EF07F09BEF07F0B7
:100FA800DEEF07F0000E116E010E106E0A4A0B2AD2
:100FB80013EF08F00AC0D9FF0BC0DAFFDF500C6E40
:100FC8000D6A0D50000AD8B4ECEF07F013EF08F0E3
:100FD8000C502B0AD8B4DAEF07F0060AD8B4D6EFCB
:100FE80007F013EF08F017C003F018C004F0000E64
:100FF800066E0A0E056EB9EC0EF00AC0D9FF0BC0DA
:10100800DAFFDF500C6E0C50035E000E045A300EEF
:101018000324176E000E0420186EDAEF07F0D00EC6
:101028000C6EFF0E0D6E0AC0D9FF0BC0DAFFDF5041
:101038000E6E0F6A0C500E260D500F220F500AE14B
:101048000A0E0E5CD8A02BEF08F02EEF08F0010E68
:101058002FEF08F0000E146E156A14501510D8A45E
:1010680038EF08F03AEF08F0F7EF07F010501110DA
:10107800D8A441EF08F043EF08F051EF08F017C08B
:101088000CF018C00DF00C1E0D1E0C4A0D2A0CC0D9
:101098000AF00DC00BF055EF08F017C00AF018C0A1
:1010A8000BF01200000E146E12BE5FEF08F05DEF39
:1010B80008F071EF08F0121E111E101E0F1E0E1EF2
:1010C8000D1E0C1E0B6C000E0C220D220E220F2280
:1010D800102211221222010E146E0ABE78EF08F0B7
:1010E80076EF08F08AEF08F00A1E091E081E071E90
:1010F800061E051E041E036C000E0422052206228D
:101108000722082209220A22010E141A20EE15F0DD
:10111800070EDE6AE806FDE20B500C100D100E10EB
:101128000F10101011101210D8B49DEF08F09FEF97
:1011380008F0F1EF08F0010E136EADEF08F0D8904B
:101148000B360C360D360E360F3610361136123673
:10115800132A12AEB2EF08F0B4EF08F0A3EF08F0CC
:10116800D890153616361736183619361A361B36ED
:101178001C360B50035C0C5004580D5005580E508B
:1011880006580F5007581050085811500958125057
:101198000A58D8A0D2EF08F0D4EF08F0E5EF08F02D
:1011A8000B50035E0C50045A0D50055A0E50065A47
:1011B8000F50075A1050085A1150095A12500A5A1B
:1011C8001580D8901232113210320F320E320D3291
:1011D8000C320B32132EB4EF08F01450D8B4F7EFDA
:1011E80008F0F9EF08F009EF09F01C1E1B1E1A1E83
:1011F800191E181E171E161E156C000E1622172211
:10120800182219221A221B221C2215C003F016C00C
:1012180004F017C005F018C006F019C007F01AC08E
:1012280008F01BC009F01CC00AF0120003C00DF042
:1012380004C00EF007500810D8A425EF09F027EFD6
:1012480009F029EF09F0D4EF09F00DC0D9FF0EC05D
:10125800DAFF05C0DFFF07500D24096E08500E2085
:101268000A6EFF0E0924D96EFF0E0A20DA6E05C039
:10127800DFFF085007E1030E075CD8B046EF09F01E
:1012880048EF09F04AEF09F0D4EF09F020EE01F039
:101298000D50D9260E50DA2205C0DFFF20EE02F0ED
:1012A8000D50D9260E50DA2205C0DFFF07500D2455
:1012B800096E08500E200A6EFE0E0924D96EFF0E24
:1012C8000A20DA6E05C0DFFF07500D24096E0850AA
:1012D8000E200A6EFD0E0924D96EFF0E0A20DA6E62
:1012E80005C0DFFF085007E1070E075CD8B07FEFA5
:1012F80009F081EF09F083EF09F0D4EF09F020EE4F
:1013080003F00D50D9260E50DA2205C0DFFF075032
:101318000D24096E08500E200A6EFC0E0924D96EA1
:10132800FF0E0A20DA6E05C0DFFF085007E1090E3C
:10133800075CD8B0A2EF09F0A4EF09F0A6EF09F016
:10134800D4EF09F00DC009F00EC00AF0091E0A1EFC
:10135800094A0A2A030E09140B6E0C6A0B500D2653
:101368000C500E220B50075E0C50085AFC0E071644
:10137800FF0E0816CBEF09F00DC0D9FF0EC0DAFF3B
:1013880005C0DFFF0706D8A008060D4A0E2A075039
:101398000810D8A4D2EF09F0D4EF09F0C0EF09F093
:1013A8001200000E146E0ABEDEEF09F0DCEF09F041
:1013B800F0EF09F00A1E091E081E071E061E051E6C
:1013C800041E036C000E04220522062207220822AE
:1013D80009220A22010E146E12BEF7EF09F0F5EF8A
:1013E80009F007EF0AF0121E111E101E0F1E0E1E26
:1013F8000D1E0C1E0B6C000E0C220D220E220F224D
:101408001022112212220B500C100D100E100F106A
:10141800101011101210D8B414EF0AF016EF0AF0D9
:101428005EEF0AF0010E136E24EF0AF0D8900B3627
:101438000C360D360E360F36103611361236132A84
:1014480012AE29EF0AF02BEF0AF01AEF0AF00B5050
:10145800035C0C5004580D5005580E5006580F5098
:101468000758105008581150095812500A58D8A057
:1014780040EF0AF042EF0AF052EF0AF00B50035E19
:101488000C50045A0D50055A0E50065A0F50075A60
:101498001050085A1150095A12500A5AD89012324C
:1014A800113210320F320E320D320C320B32132E33
:1014B8002BEF0AF01450D8B464EF0AF066EF0AF084
:1014C80076EF0AF00A1E091E081E071E061E051ED4
:1014D800041E036C000E042205220622072208229D
:1014E80009220A2203C003F004C004F005C005F075
:1014F80006C006F007C007F008C008F009C009F0E8
:101508000AC00AF0120003C00AF004C00BF005C0BC
:101518000CF006C00DF00706D8A00806072806E15B
:101528000828D8A49AEF0AF09CEF0AF0A9EF0AF06D
:10153800000E046E000E036EF1EF0AF00A4A0B2A41
:101548000C4A0D2A0706D8A008060AC0D9FF0BC006
:10155800DAFFDF50D8B4B3EF0AF0B5EF0AF0E0EFE6
:101568000AF00CC0F6FF0DC0F7FF0800F55000099F
:10157800D8B4C1EF0AF0C3EF0AF0E0EF0AF0075061
:101588000810D8B4CAEF0AF0CCEF0AF0E0EF0AF07E
:101598000AC0D9FF0BC0DAFFDF50096E0CC0F6FF96
:1015A8000DC0F7FF0800F5500918D8B4DEEF0AF0AF
:1015B800E0EF0AF0A2EF0AF00AC0D9FF0BC0DAFF89
:1015C800DF50096E0CC0F6FF0DC0F7FF0800F5509C
:1015D800095C036E046AD8A00406120005500610C0
:1015E800D8B4F9EF0AF0FBEF0AF004EF0BF005505E
:1015F8000610D8A402EF0BF004EF0BF009EF0BF084
:101608000350E6EC0EF056EF0BF020EE04F0055018
:10161800D9260650DA22DE50DE10D8B416EF0BF0C9
:1016280018EF0BF033EF0BF020EE04F00550D9263D
:101638000650DA2210EE02F00550E1260650E222AA
:10164800DE50E65CE650800A0B6EDE50800A0B58CE
:10165800D8B031EF0BF033EF0BF056EF0BF020EE74
:1016680002F00550D9260650DA22DECF07F0DDCF8A
:1016780008F005C0D9FF06C0DAFFDECF09F0DDCFDC
:101688000AF007500924D96E08500A20DA6E03C000
:10169800DFFF20EE02F00550D9260650DA22DE2AB6
:1016A800000EDD2212005BA05CEF0BF05EEF0BF08A
:1016B80068EF0BF015C00CF016C00DF013C00EF05B
:1016C80014C00FF023EC0EF018BE6DEF0BF06FEFA7
:1016D8000BF075EF0BF017C01CF018C01DF079EF78
:1016E8000BF0000E1D6E000E1C6E000E1B6E000E21
:1016F8001A6E8BEF0BF0000E046E200E036E13C0F3
:1017080005F014C006F0F2EC0AF01A4A1B2A1C5025
:101718001A5C1B50800A196E1D50800A1958D8A0EF
:1017280098EF0BF09AEF0BF07FEF0BF05BB09FEFA9
:101738000BF0A1EF0BF0ABEF0BF015C00CF016C0DF
:101748000DF013C00EF014C00FF023EC0EF015C00E
:1017580003F016C004F06AEC0DF01C500324136E5D
:101768001D500420146E120010501110D8B4BFEF91
:101778000BF0C1EF0BF013EF0CF010C003F011C029
:1017880004F06AEC0DF003C012F004C013F0FEEF91
:101798000BF00EC003F00FC004F010C005F011C02C
:1017A80006F012C007F013C008F087EC0AF00350E7
:1017B8000410D8A4E2EF0BF0E4EF0BF0EAEF0BF023
:1017C8000EC00EF00FC00FF017EF0CF0010E0E2434
:1017D800036E000E0F20046E10C0F6FF11C0F7FF55
:1017E8000800F550056E066A91EC0DF003C00EF086
:1017F80004C00FF00E500F10D8B405EF0CF007EF2F
:101808000CF013EF0CF00EC0D9FF0FC0DAFFDF5059
:10181800D8A411EF0CF013EF0CF0CDEF0BF0000E85
:101828000E6E000E0F6E1200CCEC0EF0500E036E12
:10183800010E046E000E066E000E056E020E086E96
:10184800000E076E1AEC09F0000E0001666F000E1C
:10185800956E8C68150E0001D86F4B0ED76FBE0EB3
:10186800E82EFED7D72FFCD7D82FFAD700F083EC75
:1018780005F09DEC0EF00009D8B445EF0CF047EFE9
:101888000CF02EEF0CF070EC0CF05A6E52EF0CF0DE
:101898008C822EEF0CF08C922EEF0CF05A50000137
:1018A800D76FD86BD851000AD8B45DEF0CF02EEF83
:1018B8000CF0D751000AD8B44CEF0CF0010AD8B498
:1018C8004FEF0CF0030AD8B46CEF0CF02EEF0CF0CD
:1018D8002EEF0CF007EF00F0110E146E080E156EC7
:1018E80065EC0EF00009D8B47CEF0CF07EEF0CF03C
:1018F800B6EF0CF0500E0E6E010E0F6E240E106E29
:10190800080E116EB8EC0BF0010E0E24196E000EC5
:101918000F201A6E19C00AF01AC00BF091EC07F0EC
:101928000AC01BF00BC01CF0500E036E010E046EB3
:10193800000E066E000E056E020E086E000E076E93
:101948001AEC09F0000E0001666F1B041C10D8A4E5
:10195800B0EF0CF0B3EF0CF0010EB4EF0CF0000E8A
:10196800B7EF0CF0020E120054C058F055C059F0F1
:10197800000E0001616F000E606FD6EF0CF052C0D0
:1019880042F053C043F0580E446E000E456E56C0E8
:1019980046F057C047F0B7EC06F042500001602708
:1019A8004350612358C0F6FF59C0F7FF0800F550AF
:1019B8000009D8A4E2EF0CF0E4EF0CF0C3EF0CF050
:1019C80060C052F061C053F01200C80EF66E1D0ED2
:1019D800F76E000EF86E00EED9F010EE04F0090074
:1019E800F5CFEEFFE550E150FAE101EE50F012EECE
:1019F80000F0EE6AE550E150FCE1E250FAE101EE58
:101A080000F0500EEE6AE806FDE100EE60F0590EB7
:101A1800EE6AE806FDE15C6A5B6A5D905D92000E25
:101A2800F86E000118EF0CF0010E096E200E031875
:101A38000410D8B422EF0DF024EF0DF03DEF0DF0B7
:101A4800F70E056EFF0E066E03C007F004C008F01F
:101A58000550072606500822085009E1050E075CC4
:101A6800D8A039EF0DF03BEF0DF03DEF0DF0000E73
:101A7800096E09C003F0046A1200BD0E0001C16FAF
:101A8800000EC26FB9C0C3F0BAC0C4F0000EC66F72
:101A9800000EC56F000EC86F000EC76FC30E526EE2
:101AA800000E536EBBC054F0BCC055F0C10E566E4C
:101AB800000E576EB8EC0CF00001C551B925D96E6F
:101AC800C651BA21DA6E000EDF6E120003C005F0AF
:101AD80004C006F072EF0DF0034A042A03C0F6FFB3
:101AE80004C0F7FFF86A070EF76403D00800F55042
:101AF80005D0F6CFE1FFF7CFE2FFE7500009D8A401
:101B080088EF0DF08AEF0DF070EF0DF00550035CD3
:101B1800036E06500458046E120003C0D9FF04C0B7
:101B2800DAFF0550DE18D8A49CEF0DF09EEF0DF0FB
:101B3800A4EF0DF003C003F004C004F0B6EF0DF0FD
:101B480003C0D9FF04C0DAFF034A042ADF50D8A42F
:101B5800B0EF0DF0B2EF0DF091EF0DF0000E036E47
:101B6800000E046E12000600D9CF01F0DACF02F0A1
:101B78009EAAC1EF0DF0C3EF0DF0D7EF0DF0ABA2A9
:101B8800C8EF0DF0CAEF0DF0CDEF0DF0AB9800F0F7
:101B9800AB88500E00016625D96EDA6A010EDA228A
:101BA800AECFDFFF662B02C0DAFF01C0D9FF5D921E
:101BB800110083A4E2EF0DF0E4EF0DF0DDEF0DF07E
:101BC800280EE82EFED783A4ECEF0DF0EEEF0DF013
:101BD800FBEF0DF083B4F3EF0DF0F5EF0DF0EEEF42
:101BE8000DF0000E046E010E036EFFEF0DF0000EF7
:101BF800046E000E036E1200000E0B6E0EEF0EF058
:101C08000B500724D96E000E0820DA6EDF50D9EC8D
:101C18000EF00B2A07C003F008C004F06AEC0DF0C0
:101C28000B50096E0A6A0350095C04500A58D8A080
:101C380020EF0EF022EF0EF004EF0EF01200000E6F
:101C4800126E000E116E34EF0EF010C003F0046A2D
:101C58000EC005F00FC006F0F2EC0AF0114A122A85
:101C680011500C24D96E12500D20DA6EDF50106E10
:101C78001050D8A442EF0EF044EF0EF029EF0EF00A
:101C8800120016BE52EF0EF0165006E11504D8B039
:101C980050EF0EF052EF0EF060EF0EF015C017F097
:101CA80016C018F0171E181E174A182A17C015F064
:101CB80018C016F064EF0EF015C015F016C016F037
:101CC8001200500E0E6E010E0F6E14C010F015C0EB
:101CD80011F0B8EC0BF00EC016F00FC017F016504C
:101CE8001710D8B47AEF0EF07CEF0EF07FEF0EF0FD
:101CF800010E80EF0EF0000E1200D00E056EFF0EE2
:101D0800066E03C007F004C008F005500726065009
:101D1800082208500AE10A0E075CD8A096EF0EF0D8
:101D280099EF0EF0010E9AEF0EF0000E036E046AA2
:101D38001200500E0E6E010E0F6E200E106E080E61
:101D4800116EB8EC0BF00EC014F00FC015F0145063
:101D58001510D8B4B2EF0EF0B4EF0EF0B7EF0EF0E6
:101D6800010EB8EF0EF0000E120003500502F3CF7B
:101D780007F0F4CF08F003500602F3500826045089
:101D88000502F350082607C003F008C004F012004B
:101D9800948C948E190EAF6EAC8EAC8AAB88AB8ED9
:101DA800F28EF28C9D8A9D981200036E9EA8DFEF3A
:101DB8000EF0E1EF0EF0DAEF0EF003C0ADFF120007
:061DC800200811081200C2
:020000040020DA
:08000000FFFFFFFFFFFFFFFF00
:020000040030CA
:0E000000030C1F1FFF8385FF0FC00FE00F4092
:00000001FF
