:020000040000FA
:0400000007EF00F016
:0A0008001C8261ED05F0B3EF04F077
:10080000003C4C65644F66663E003C4C65644F6E30
:030810003E0000A7
:1008140031D00EC007F00FC008F010C009F011C0AD
:100824000AF010C003F011C004F008EC05F003C096
:100834000BF004C00CF04CEC04F007500810D8A4E2
:1008440005D00EC00EF00FC00FF01200010E0E24E2
:10085400036E000E0F20046E10C0F6FF11C0F7FFE8
:100864000800F550056E066AD5EC04F003C00EF0DE
:1008740004C00FF00E500F10D8B407D00EC0D9FF2B
:100884000FC0DAFFDF50D8A4C4D7000E0E6E000EDE
:100894000F6E12002CD007C0D9FF08C0DAFFDF505A
:1008A400D8B40FD007C0D9FF08C0DAFFDF500D6EEF
:1008B40009C0F6FF0AC0F7FF0800F5500D18D8B4B8
:1008C40012D007C0D9FF08C0DAFFDF500D6E09C08F
:1008D400F6FF0AC0F7FF0800F5500D5C076E086AC2
:1008E400D8A008061200074A082A094A0A2A0B0651
:1008F400D8A00C060B28CFE10C28D8A4CCD7000E26
:10090400086E000E076E1200F20ED36E77EC05F03F
:10091400000E036E060E046E000E066E000E056ECB
:10092400020E086E000E076E1FEC05F0000E1B6E23
:10093400000E956E000E8C6E4BEC05F00009D8B4D9
:10094400FBD7F0EC04F0166E04D08C82F5D78C92B1
:10095400F3D71650000AD8B4F8D7010AD8B4F7D799
:10096400EBD7080EF66E0B0EF76E000EF86E00EE67
:1009740017F010EE04F00900F5CFEEFFE550E1505A
:10098400FAE106EE00F012EE00F0EE6AE550E150F6
:10099400FCE1E250FAE11B6A1C901C92000EF86E16
:1009A400000186EF04F003C0D9FF04C0DAFF05504C
:1009B400DE18D8A405D003C003F004C004F012006C
:1009C40003C0D9FF04C0DAFF034A042ADF50D8A4C5
:1009D400EAD7000E036E000E046E12000A0E126EA9
:1009E400080E136E35EC05F00009D8B402D0000EE1
:1009F4001200010E126E080E136E35EC05F000099C
:100A0400D8B402D0010E1200020E120003C005F089
:100A140004C006F002D0054A062A05C0F6FF06C047
:100A2400F7FF0800F5500009D8A4F5D70350055C7A
:100A3400036E04500658046E120003C009F004C08B
:100A44000AF008D009C0D9FF0AC0DAFF05C0DFFFE9
:100A5400094A0A2A0706D8A008060728F3E1082845
:100A6400D8B41200EFD7000E0E6E060E0F6E12C031
:100A740010F013C011F00AEC04F00EC014F00FC013
:100A840015F014501510D8B402D0010E1200000E47
:100A94001200000E0E6E060E0F6E080E106E080E7B
:100AA400116E0AEC04F00EC012F00FC013F01250D5
:100AB4001310D8B402D0010E1200000E120006006A
:100AC400D9CF01F0DACF02F09EAA09D0000E1B2480
:100AD400D96EDA6A060EDA22AECFDFFF1B2A02C015
:100AE400DAFF01C0D9FF1C921100949C948E0C0E65
:100AF400AF6E200EAC6E900EAB6EF28EF28C9D8AB1
:080B04009D98120001080A0887
:020000040020DA
:08000000FFFFFFFFFFFFFFFF00
:020000040030CA
:0E00000001081F1FFF8385FF0FC00FE00F4098
:00000001FF
